:020000040800F2
:1000000000100020C9270008C7270008C5270008DE
:1000100000000000000000000000000000000000E0
:10002000000000000000000000000000C7270008DA
:100030000000000000000000C72700084D01000874
:10004000C5270008C5270008C5270008C5270008E0
:10005000C5270008C5270008C52700088112000829
:10006000C527000821020008C5270008C527000889
:10007000C5270008C5270008C5270008C5270008B0
:1000800015050008C5270008C5270008C527000872
:10009000C5270008C5270008C5270008C527000890
:1000A000C5270008C5270008C5270008C527000880
:1000B000C5270008C5270008C5270008C527000870
:1000C000074B10B51A68074C1B686260236001F08B
:1000D00081F9237AE07263720023A37210BDC046D7
:1000E000D0000020B800002010B5024802F057FBF5
:1000F00010BDC0460038014070B5FA250F4CAD0068
:10010000E1890F48694302F0F7FA2800A289E389E0
:1001100064215343584302F07DFC0A4E0A4B308061
:1001200062881988914200D21A80228819889142E7
:1001300000D91A8000F03CFE70BDC046D4000020FB
:10014000000400406C000020CC00002070B52D4D54
:100150002B6801332B6001F00DF92B4C237A002B17
:1001600002D00123637270BD637A002B0ED1274940
:100170004B89002B0AD06422D21A254B1B685343AB
:10018000244A126893421FD92B68236001F022F998
:10019000002824D0E27A637A002A05D10132E27283
:1001A000002BE0D1FFF78CFF637A002BDBD1A27A22
:1001B0006168164B002A18D02A68521A1989164B02
:1001C0004B439A42CDD8CEE723682A680989D21AD0
:1001D000114B4B439A42D9D901236372D6E7E37A94
:1001E000002BC0D0FFF76CFFBDE72A68521AD988F0
:1001F0000A4B4B439A42B6D90123A3722B68636022
:10020000B1E7C046D0000020B8000020D400002094
:10021000640000206000002060EA00001027000059
:10022000F0B5022201219C4885B001F066FE9B4C8E
:100230009B4BA2889B4E9A4204D901239A4A337061
:100240009A4B1A609A4B1F889A4B5A7A0192002A4D
:1002500000D0A6E09B7A002B06D0974B9A88131CFF
:10026000BA4200D93B1C9FB2944B18880023A28845
:100270002588190092B280B202F088FCADB200234A
:100280008F4A02F083FC2A00002302F05FFCFA236D
:100290000905000B08439B005843874BD98A02F09D
:1002A000B9FB33780500002B27D1864B864A1B68A3
:1002B000002F02D08549884275D913607F4B18887A
:1002C000002362882488190092B280B202F05EFC9A
:1002D000A4B200237E4A02F059FC0023220002F05F
:1002E00035FC7C4B0905000B0843984268D8012275
:1002F0006C4B1A706D4B784A1A606F4C7748238BA1
:100300000293FA23029A9B0053435B19744D2A68A7
:100310000392744A9446039A96000268110062465A
:10032000B2588A1A614673500F2603999A18013100
:1003300031402960002102600800120966468500EC
:100340007559AA4245D2891A491901301028F5D1A8
:10035000FA20C00181423FD30809D11A934200D943
:10036000991A64224A43E62141435F4D8A4200D3F1
:1003700089E007205D495E4E0A684243FA2080000A
:100380004743D218D2080A603188FA1A002A26DDBB
:10039000A38A934200DD1300002B2BD1C91888B229
:1003A0002EE0002760E712689B1AFA22920093421F
:1003B00000D883E701234F4A33703C4B1A607DE736
:1003C0004D4B984299D90122364B1A70374B4B4A04
:1003D00092E75118491BB8E7FA20C000BDE7002A90
:1003E00044D0A08ADB1B83423ADD4342002838D147
:1003F0000300D3E7678A7843CF188742CEDD80B207
:10040000FA213080238A89005943801881422FDAEB
:100410003B4B1C88220006213A4802F06FF93F222C
:100420002B68394953430A681B199B092B609302B7
:100430009B1A642262439B189B0A34480B6001F0AC
:1004400057FD304802F049F9164B1B78002B05D1B7
:10045000002C03D002212E4801F05CFE05B0F0BD57
:1004600013005F420020B942CADB97E7130095E70B
:10047000002801DC0024CDE7214B1B88584302F003
:100480000FFB84B2C6E7019B002BF3D1029BBB425A
:10049000F0D22C68A4B2BDE7000002405800002052
:1004A0009E0900006E000020342D00086800002026
:1004B000CC000020B8000020D4000020BAF7FF1FB5
:1004C0004C010100D0000020C8000020204E000098
:1004D000CC8D00006F170000412D00087400002033
:1004E000700000207800002064000020C40000207C
:1004F0005E0000203B2D0008983A0000472D0008C0
:100500006C00002000040040600000200024014036
:100510000004004810B51021044802F0C9F801F0A9
:10052000ABFE0221024801F0F3FD10BD00040040C3
:1005300000040048F0B596208DB001F06BFE01F08C
:1005400059FE02F069F8F54802F0A0F8F44802F00C
:100550009DF8F44802F09AF8F34802F097F8F3484F
:1005600002F094F8F24802F091F8A020800002F026
:100570008DF8FA20EF49800002F074F902F08EF94C
:1005800002F084F9022300220121EB4801F0C8FDAA
:10059000022303220021E84801F0E2FD0221E6489F
:1005A00001F0B6FD90200C2300220221C00501F0CD
:1005B000B7FD90200C220121C00501F0EFFDC02302
:1005C000902001220221DB00C00501F0A9FDC0231B
:1005D0009020DB0003220121C00501F0C1FDC022F3
:1005E00090200421D200C00501F0D8FD0323902003
:1005F00019000022C00501F093FD9020F023012294
:100600000021C00501F08CFDCC4801F0F7FF30223D
:100610000121CA4801F009FFC84801F035FE9021C8
:10062000D020C90501F032FD0221D02001F0FAFCF2
:10063000D02001F017FD072002F038F9E121C04871
:10064000490202F06FF80821BD4802F077F8002156
:10065000BB4802F089F80021B94802F07DF80C216E
:10066000B74802F089F80021B54802F08BF8B44889
:1006700002F090F8B34801F023FC0621B14801F0E4
:1006800007FC01F02BFC0322AF4904A802F02EF96D
:10069000032104AAAB4801F0C5FBAA4801F001FC04
:1006A000A84801F015FC8022C021A648D20001F024
:1006B000A9FB0121A54AA64801F095FC0121A54A04
:1006C000A34801F087FC80220121A148D20001F05B
:1006D00029FC8022012152009D4801F033FC0121B8
:1006E0009B4801F049FC0121994801F03BFC0121A4
:1006F000974801F051FC0121954801F057FC032275
:100700000121934801F078FC802201219048920158
:1007100001F0F8FB002201218D4801F074FC012159
:100720008B4801F04DFC092002F0C0F8854801F02B
:10073000DFFB002388481A00190001F0BDFF3021BB
:10074000854801F0D7FF844801F0C2FF8349824801
:1007500001F0D2FF2021804801F0C4FF00220621D1
:100760007D4801F0CBFF10217B4801F09DFF102058
:1007700002F09CF87A49002001F082F8794801F0F3
:1007800089F801F079FD01F00FFB00F0CDFD0122A9
:10079000754B1A72FFF794FC01F06EFD734B6E48B7
:1007A0001A68734B1A6001F098FF00F0EDFA002808
:1007B00001D100F099FC00F04BFB6E4B0024188037
:1007C000FFF79AFC21006C4801F064F8012C00D17D
:1007D000C9E100231F000293FA21684B89001868C1
:1007E00002F018F90521023002F014F905235843EC
:1007F00084B2002001F0E6F80321002001F01AFA8B
:100800006421200002F006F90A2180B202F03EF9CC
:1008100004AE2031200031700A2102F0FBF80A21D9
:1008200080B202F033F92031200071700A2102F009
:100830002DF901250023524C2031B170F370019540
:10084000E3683000009321686268A36801F0D4F97E
:100850002B0003220A21362001F03AFA03213A2024
:1008600001F0E8F90195E368464800930ECC01F0E9
:10087000C3F903215A2001F0DDF93E4B20211B88EA
:10088000414A300001F034F8404C0195E3683000F3
:10089000009321686268A36801F0AEF92B002A007A
:1008A0000521752001F014FA0321792001F0C2F925
:1008B0000195E36836480093A3682168626801F0F7
:1008C0009BF9344B1B78002B00D157E100260C21FB
:1008D000562001F0AFF90196E3682F480093A36812
:1008E0002168626801F088F92C4D2B68B3420AD068
:1008F0001621562001F09EF90196E36800932868BE
:100900000ECC01F079F9264B1868264BC0011988E6
:1009100002F080F883B2002B4ED045E09102000037
:10092000920200000E03000095030000090300007E
:1009300081030000006CDC02000400480054004009
:100940000038014000240140452E000858000020D6
:100950000000024040240140000400401027000035
:10096000E90000084E2D0008B8000020D00000204B
:10097000C8000020CC0000208F2D0008C4000020FB
:1009800010000020FA2D0008FC2D00082000002097
:100990002F3A00086E000020002E0008680000209A
:1009A000640000206C000020012300931E33C2B2BB
:1009B0001900002001F044F901F012F8894E8A4D27
:1009C00033682A6889499B1A894A096812688948E4
:1009D00000F060FF642000F003FD00F0F5FC041E51
:1009E00000D1EFE0002F00D0E4E03768824C834B69
:1009F00025881A8859882800052300F0F7FC82B260
:100A0000784B2280954200D1E7E01A680392039A5E
:100A10001B6801219B1AFA2202919200934200D88E
:100A2000DAE681B2764800F035FF208800F01AFA45
:100A300000230293D0E6734C734E744833882188A8
:100A4000584389B202F02CF80290308862882788D7
:100A50002B0092B2290080B202F098F8BFB20023B6
:100A60006B4A02F093F83A002B0002F06FF8070B84
:100A70003088A288090524880F432B0092B22900F0
:100A800080B202F083F8A4B20023624A02F07EF83A
:100A900022002B0002F05AF80905060B0E43F3085A
:100AA00019333A0002995C480093330000F0F2FEDB
:100AB000280000F087FF2900280001F0BBF8202162
:100AC000564A029B04A800F013FF0123544C0193E3
:100AD000E36804A800936268A368216801F08CF8B9
:100AE0000B21280001F0A6F83B00012720214D4AE8
:100AF00004A800F0FDFE0197E36804A80093626873
:100B0000A368216801F078F81621280001F092F816
:100B100033002021444A04A800F0EAFE0197E3686C
:100B200004A8009362682168A36801F065F82F4B60
:100B30001868642358433D4B198801F06BFF060089
:100B40002900562001F076F82021394AB3B204A8D2
:100B500000F0CEFE0197E36804A800930ECC01F0EC
:100B60004BF800F03DFF00F02FFC051E00D162E7BE
:100B700000F0FCFA0400FFF7BFFA23E61A4B5A7A9A
:100B8000002A09D06B20162101F054F8294801955C
:100B9000E36800930ECCB4E69B7A1621002B04D0B8
:100BA000642001F047F82448F1E7722001F042F890
:100BB0002248ECE7FA2233689200DB1B934200D80C
:100BC00014E7D5E7002F00D110E701236A7A270048
:100BD00053402B72FFF774FA08E7029A002A00D1FB
:100BE000FAE514E7D0000020B800002064000020DF
:100BF00060000020132E0008CC000020D40000204C
:100C00002D2E000858000020BAF7FF1FE40C00004A
:100C1000CC8D0000BA190000A52D0008CF2D0008CA
:100C200020000020DB2D0008E72D00086C000020CC
:100C3000F32D0008072E00080B2E0008102E0008C8
:100C4000F0B5831887B0150002900391802B30DD3A
:100C500007B0F0BD6B460F221C7A02ABD218029B84
:100C600014701E0A2B1CFF2D00D9FF239BB2E11824
:100C70006442E4B2FF2900DCDCB200275036F6B251
:100C8000012331000C480197009701F075FB039B8D
:100C9000019400933A003B003100074801F06CFBDF
:100CA000039B2D1B1B190393029BADB2E418A3B247
:100CB0000293002DCED1CBE700540040F0B583184D
:100CC00006000F00140089B0802B2BDD09B0F0BDA9
:100CD000330AF1B20393221C082C00D90822F3082E
:100CE0000133DB0092B29BB25D1A8818EDB29842D4
:100CF00000DCD5B20D2002AB19732A003900C018F0
:100D000001F0F4FD0022310A5031019200920748AF
:100D10006B1CC9B205AA01F02FFB641BAE19A4B26B
:100D20007F19B6B2002CD3D1D0E7C04600540040A2
:100D300013B51A22040001002020FFF781FF6B4643
:100D40000222991D1E20FFF77BFF6B460C48D988B5
:100D500000F0A0FD2200200000241A3203780130A8
:100D6000E418A4B29042F9D12100064800F092FDA7
:100D70006B46D888001B43425841C0B216BDC046DE
:100D80007A3800089738000810B50248FFF7D0FFFE
:100D900010BDC046D400002010B51A2202480349F5
:100DA00001F0A4FD10BDC046D40000202239000887
:100DB000F0B5002489B0214801AF00F06BFD380088
:100DC000FFF7B6FF230025001D4E01E00135ADB24F
:100DD000795D725D914211D01A2DF7D121002A0060
:100DE000184800F057FD20002A1B2030311992B21C
:100DF00080B2FFF763FF2C00012301E0A542EDD193
:100E00000134A4B2192CDED9002B12D00023190012
:100E1000F25C0133891889B21A2BF9D16B460A4862
:100E20009C1C598000F036FD022221001E20FFF795
:100E300045FF064800F02EFD09B0F0BDAF380008B0
:100E4000D4000020CA380008F23800080F39000822
:100E500013B56B469C1D022221000020FFF7F0FE17
:100E6000208816BD07B56B46991D08800222002018
:100E7000FFF724FF07BD000070B50B4D2E6800F092
:100E8000A3FA040000F0A0FAA0420BD100F08CFA03
:100E9000002807D12B68054A9B1B9342F2D90122F7
:100EA000034B1A7070BDC046D00000201027000010
:100EB000EE000020F0B589B014000491069000F017
:100EC0007BFA00F081FA04990590404800F0E2FCBA
:100ED000002303930321200001F09CFDC6B20020F3
:100EE00000F070FD03220325731C5A43B3007543C1
:100EF000F61A0B23EDB276195E43F3B20792029312
:100F0000049BEEB2B34202D9079B9D421EDB00F068
:100F100067FDFFF7B1FF2E4B1B78002B53D100F07C
:100F200053FA002803D0059B002B00D1039000F05A
:100F30004BFA039B0590002B35D0002833D12100BC
:100F4000244800F0A7FC200009B0F0BD0120029960
:100F500000F070FEB44221D1029F0AE03000013659
:100F600001223900F6B200F069FD802EF6D101377A
:100F7000FFB2029B00260933BB42EFDA164BA800F2
:100F80000196DA68069E00920ECB305800F034FECF
:100F9000029B01350B33DBB20293B1E701220E4B0A
:100FA000A8000192EDE700F0FFF943425841039B8E
:100FB000404203400393049B200000215A1E00F08E
:100FC0002DFAC4B286E70024BDE7C0463C390008CC
:100FD000EE0000205839000820000020F0B5002461
:100FE000A9B03D4B03910AAA89008B50039B049042
:100FF0000133DBB205930025049E13276F4310AB2A
:10100000FF183368B2681B881321380000F070FCA9
:10101000AB000AA80135039A1F50EBB214369A426E
:10102000EBD82E4D2B78002B53D122000599FFF7DA
:1010300041FF2B780400002B4BD1039B834248D007
:10104000142540274543049B5D1900F0BDF9061E99
:10105000D1D1300000F0B6FCE86801F099FC07231C
:1010600058434008381A3100C0B200F0E3FD0122B5
:101070001B4B0192DA6800920ECBE86800F0BCFDD1
:101080002B682A6910211B8806A800F031FC06A8ED
:1010900001F07EFC0B2358434008381A0E21C0B2E1
:1010A00000F0C8FD0F4B0196DA6806A800920ECB3F
:1010B00000F0A2FD00F094FC0120404200F090F905
:1010C0002B68EA881888A98800F0A8F92B6818808E
:1010D000BBE729B0F0BDC04672390008EE00002021
:1010E000200000200000002007B5FFF755FE00207B
:1010F00000F068FC0021080000F09CFD0122144B68
:101100000192DA68134800920ECB00F075FD0E21B3
:101110003A2000F08FFD00220F4B0192DA680F4851
:1011200000920ECB00F068FD00F05AFC0C4800F075
:10113000B1FB00F049F90028FBD00A4800F0AAFBF7
:1011400000F042F90028FBD1074800F0A3FB07BDDF
:10115000200000207A390008000000208D390008A6
:1011600090390008B0390008B7390008F7B50025F4
:101170000023384F2A00082137483B70FFF79AFEBA
:101180003E780500002E11D1013805280ED801F057
:1011900037FC0E03061013153048022101E004212C
:1011A0002F48FFF71BFF3B78002BE1D000252800DC
:1011B000FEBD05212B48F4E72B48EEE7002000F0A8
:1011C00001FC0021080000F035FD0122274B0192AF
:1011D000DA68274800920ECB00F00EFD0E21142095
:1011E00000F028FD0123234C73400193E36822485B
:1011F0000093A3682168626800F0FEFC0E2156206F
:1012000000F018FD0196E3681C4800930ECC00F036
:10121000F3FC00F0E5FBFFF72FFE3C78002CC5D176
:1012200000F0CAF8002812DC00D0012600F0CCF84B
:101230000028C3D000F0B8F80028BFD100F0C4F8EF
:101240000028F7D1002EAED0FFF74EFFABE7260007
:10125000ECE7C046EE00002030000020F03C000823
:10126000A03C00083C3C0008143C00082000002082
:10127000C239000800000020D4390008D83900081D
:1012800070B5D02000F0FCFE90201021C00500F0C9
:1012900044FF421E9041204C2379984219D00123EB
:1012A00022791E4D53402371A2682B689B1A022B92
:1012B0000FD990202021C005267900F02EFF431E73
:1012C0009841F6B22368B04224D0013323602B68E2
:1012D000A36090204021C00500F01FFF4342584109
:1012E000C4B290208021C00500F017FF434258414E
:1012F0000B4AC0B25178A14203D008490968516035
:101300005470084A5178814203D0044909685160F9
:10131000507070BD013BD9E7F0000020D0000020E4
:10132000FC0000200401002010B59024E4051021E9
:10133000200000F0F2FE431E98410B4BC0B2187122
:101340004021200000F0E9FE43425841074BC0B263
:1013500058708021200000F0E0FE43425841044BC9
:10136000C0B2587010BDC046F0000020FC00002044
:1013700004010020094B0A4A1B685168591A0229C6
:1013800002D95178C9B21170064A51685B1AC82B4C
:1013900002D95378DBB213707047C046D0000020EA
:1013A000FC00002004010020024B1868431E9841F5
:1013B000C0B27047F00000200022024B18681A608B
:1013C0007047C046F0000020014B1878C0B270474B
:1013D000FC000020014B1878C0B2704704010020C7
:1013E000014B1B787047C046FC00002070B50026FA
:1013F00004001000084A156816606B43B34203DD11
:101400001A19824206D970BD002B03D00800CA1AEF
:10141000A242F8D81819F6E7F000002010B5012311
:10142000FFF7E4FF10BDF0B5160001250024136995
:1014300089B0D76803900491019323002A00039890
:10144000049901F083FB00238B4209D1874207D91D
:101450001F002B0023430CD1019A137009B0F0BD7B
:10146000280021003A00002301F090FB05000C0049
:10147000E3E7039804992A00230001F067FB049333
:10148000F368029007900690039205931A002800D3
:101490000023210001F05AFB002F0AD1079B002BEB
:1014A00007DCA74202D1059BAB4215D805000C0012
:1014B000CFE7069A3023092A05DD04243278073362
:1014C000224200D12033029A01379B18019A1370EF
:1014D000130001330193E9E73023F4E7F0B5050089
:1014E0000E0001240B6985B0CF680193210028000C
:1014F00001F090FAB84206D20027002C05D1019BDA
:101500001C7005B0F0BD7C43F0E72800210001F01D
:10151000BDFAF3680D00029019002000039301F05A
:1015200079FA002F07D1029B002B04DC039BA34216
:1015300014D80400E1E7029A3023092A05DD0421CA
:10154000327807330A4200D12033029A01379B18C0
:10155000019A1370130001330193EAE73023F4E793
:10156000F7B5060015005468136901911B19624212
:101570009A5C002A01D0002C38DC2B7A5A1E934149
:101580002A78E41A930703D5EB68102B30D1023C7C
:10159000092327001A4235D0297A002902D03000C9
:1015A000019B98472B789B070ED5EB68102B31D108
:1015B0003021019B300098472B7858215B0700D4DD
:1015C00020313000019B98472B782700DB072AD475
:1015D0002F6901377B1E197800292CD109222B781D
:1015E0001340082B01D1002C29DCF7BD013CBEE7DC
:1015F000083B59424B41E41ACAE720213000019BC5
:101600009847013F002FF8DCE343DB17621E1C40C4
:10161000141BC1E7082BD7D13021D2E7302130008D
:10162000019B9847013F002FF8DCE343DB17621E64
:101630001C40141BCCE73000019B9847C9E72021D0
:101640003000019B9847013CCDE7836802689342D4
:1016500001D24268D1548368013383607047F0B58A
:1016600006008FB01C0008AB009107931178551C41
:10167000002901D10FB0F0BD252903D03000009B17
:10168000984773E00B20002203AB19781A7281434C
:1016900019702900130004920192481C09788446AD
:1016A0000500002905D02D2920D0302922D023295A
:1016B00022D0002A04D0022203A807783A430270FD
:1016C000002B04D0012003AB1A7802431A70019B4F
:1016D000002B04D0082303AA1078034313700B00D7
:1016E000303B092B22D800220A270DE0012101916D
:1016F0006146D2E70123FBE70122F9E77A439A1812
:101700006346197801239C440B00303BD8B26546F0
:101710000928F3D9313B052B03D80A330A2BEDD026
:1017200003E00B00413B052BF7D904922E290DD184
:1017300003AA13782D390B43137063461A001178EE
:1017400001330A00303A1D00092AF7D97A290FD14E
:10175000012329780135782908D8622915D8252947
:101760008CD0582962D0002900D183E72A007DE778
:1017700000236C29EFD129786C2902D0013501337F
:10178000E9E7697802230235E5E7080063381528A0
:10179000ECD801F02BF9671CEBEBEBEB1CEBEBEB64
:1017A000EBEB6045EBEB6AEB0BEBEB4B0A220692A3
:1017B000022B49D1073405339C4303AA03CCFFF71E
:1017C00032FE3000009903AAFFF7CAFECEE70A22D4
:1017D0000692022B18D1073405339C43270003CF10
:1017E000002907DA03000C0000215842A1412D23F3
:1017F00002AA137303AAFFF716FE3000009903AA8A
:10180000FFF7AEFE3C00B1E72068271D002803DA91
:101810002D2302AA4042137303A9FFF75FFEECE7F2
:10182000022303AA107803431370002310225839AF
:1018300006924A42514104208A0002A90979814353
:10184000114302AA1171B3E701CC03A9012B06D100
:10185000FFF744FEB5E7082301CC069303A9FFF781
:101860003DFEAEE702CCC9B208E708CC30000099D3
:1018700003AA0793FFF774FE08AB079376E700000F
:10188000024B1960024B18607047C0460C010020E3
:10189000100100200FB407B5064904AB064804CB7D
:1018A000096800680193FFF7DAFE03B008BC04B0D2
:1018B0001847C0460C010020100100201FB500246D
:1018C000A1420ED001390290019101A80749039469
:1018D000FFF7C5FE0399019B029A994204D2545422
:1018E000039C200004B010BDD454F9E74B16000847
:1018F0000CB407B504AB04CB0193FFF7DFFF03B0D3
:1019000008BC02B01847C943F0B50B000500072614
:101910000020CC1AE4B2A24200D8F0BDDC431F0084
:10192000E4102C5D37403C41012740003C402043FF
:10193000013BEEE7F7B5140001900D0018483C217B
:1019400000F0DAFC0134164800F0E0FC21001448F5
:1019500000F0EAFC124800F0F1FC114800F099FC9C
:101960000127002C00D1F7BD0D4800F0F9FC06005E
:101970000B4800F0F1FC0028FAD1002EF4D0002F23
:1019800006D00199064800F08AFC0027013CE8E7F0
:10199000297803486E1C00F082FC3500F5E7C0464C
:1019A0000054004007B56B46D91D08700122002085
:1019B000FFF7C0FF07BD10B50A0001004020FFF788
:1019C000B9FF10BD421E90418022002303494042CE
:1019D0009200C85401339342FBD170471C01002090
:1019E000F8B5144B0122DC79002C01D0002204242C
:1019F00025002600503D4C3E0F4FDA71EDB2F6B295
:101A00002800FFF7CFFF0020FFF7CCFF01351020A3
:101A1000FFF7C8FFEDB238008021FFF7CCFF803719
:101A2000B542EDD120000830C000C0B2FFF7BAFFC8
:101A3000F8BDC046140100201C01002043B230B59F
:101A40000400002B12DB1F2910D80F4B0F4D187903
:101A5000CB0800280BD0002A0BD107221140063AF0
:101A60008A40DB011B19E95C0A43EA5430BD012AB4
:101A7000F3D0D8010723012219408A4000192B5CBA
:101A800093432B54F2E7C046140100201C010020B0
:101A900084B0F0B591B01791010019931BAB1B787E
:101AA00020390B93CBB2009017AC18925E2B00D963
:101AB0009DE0237802934F4B02981A8801921218E6
:101AC000802A00DD93E0627808925B8806939B1879
:101AD000202B00DD8BE022791A98514389B2FFF761
:101AE00012FFA578E778199C80B224182A000021FB
:101AF0002000FFF708FFAEB22A0031000C90200052
:101B0000FFF701FF6B4607901B7F760031003A001C
:101B100020000593FFF7F7FE6B4603901B7B3A000E
:101B2000F11920000E93FFF7EEFE6B46FF269B8A0D
:101B3000059A0F93039BED19334053436D00EDB2AB
:101B4000ED1AABB200250D900493EBB20A93089BFB
:101B5000EAB293420BD80299019B8C46254A634412
:101B60001380009811B0F0BC08BC04B018470023E3
:101B70000A9A09930E9B934215D80D9A039B324003
:101B800033409B18AB420EDD059A20000499FFF705
:101B9000BAFE10220C9B3340D31A079A32409B1A8C
:101BA000984083B209930027029BF8B2834207D87A
:101BB0000F9A049B944663449BB201350493C4E797
:101BC000019B069AC0180A9BC0B29918099B8022F3
:101BD000BB401202C9B2134204D00B9AFFF72EFF8A
:101BE0000137E1E70B9B5A425A41D2B2F6E7002394
:101BF0000093B6E71401002084B037B504000993C0
:101C00000BAB1D78079108922078002803D13EBCC9
:101C100008BC04B018470A9B07990093089A099BCF
:101C20000195FFF735FF030020788342EFD101349F
:101C3000EAE70000014B188059807047140100202A
:101C4000F0B587B000930CAB1B7817000593131AFF
:101C5000DA179B1853400193009B05005B1ADA17B3
:101C60009B185340029301230C000393874201D831
:101C7000023B039301230493009BA34202D8012358
:101C80005B420493029A019B38009E1A0099059AC0
:101C9000FFF7D4FEBD4204D1009B9C4201D107B0A6
:101CA000F0BD059A21002800FFF7C8FE029A7300D4
:101CB00052429A4204DA029AB61A039AAD18EDB269
:101CC000019A9A42E6DD049BB618E418E4B2E1E713
:101CD000F0B587B001936B4602901B7A03915BB21B
:101CE000002B44DB1F2942D801240023A41A5542AB
:101CF00064000093029BEFB2DB1BDBB204936B46E4
:101D0000039A1B7804989E18F6B23100019A059345
:101D1000FFF794FE029B3100FF18FFB23800019AD2
:101D2000FFF78CFE039B059A38009E1AF6B231002D
:101D3000019AFFF783FE3100019A0498FFF77EFEB7
:101D4000009BA34217DB0133009300995B00013332
:101D50006A421B198A4202D1A54202DB0024A54235
:101D600007DA01356A0001329B18012D01D107B055
:101D7000F0BD1C00BEE72300F1E710B50400812090
:101D8000FFF710FE2000FFF70DFE10BD030010B599
:101D9000AE20002B01D00123AF20024A9371FFF740
:101DA00001FE10BD14010020002313B5124A019357
:101DB000019B93421CD90024104BE05C0134FFF7D7
:101DC000F1FD182CF8D10020FFF7E0FFFF20FFF70E
:101DD000D4FF0020FFF7F6FDFFF702FE0120FFF71A
:101DE000D5FF0022064B1A805A8001325A7113BD6A
:101DF000019B01330193DBE79F860100183D00083A
:101E00001401002010B5C368044C23400B43C36089
:101E1000C36803490B401343C36010BD3FFEFFFF7F
:101E2000FFF3FFFFF7B5002901D18162F7BD01255E
:101E3000137800249D4001232E0027009B1A019354
:101E4000019B9B18DBB2994206D80423002F14D0C3
:101E5000002C19D000F036FD012553789D402E430B
:101E60001578013200959D42AD416D422F43009D92
:101E7000AB429B415B421C43E2E7002C04D0C268AA
:101E80001343C3608662D1E7C2689A43C260F9E730
:101E9000072319404161704701238268134383601F
:101EA000704710B50400FFF7F7FF012322681A42BC
:101EB000FCD010BD802382681B06134383607047EB
:101EC00010B50400FFF7F6FFA368002BFCDB10BD84
:101ED0000123C2681343C360704700008023034A94
:101EE000DB0311680B4313607047C04608270140AD
:101EF00004238268134383607047013989008A4054
:101F0000426070474B1E14215943083009180B6872
:101F1000034803400B600B6813430B607047C046D7
:101F2000FFCFFFFF4B1E14215943083009180B68DF
:101F3000034803400B600B6813430B607047C046B7
:101F4000FFF3FFFF4B1E14215943083009180B689B
:101F5000034803400B600B6813430B607047C04697
:101F6000FFFCFFFF4B1E1421594380230830091842
:101F70000A6813430B6070474B1E142159432023FA
:101F8000083009180A6813430B600B68014A1340B4
:101F90000B607047FFBFFFFF4B1E142110225943F7
:101FA000083009180B6893430B6070474B1E1421CF
:101FB00059430223083009180A6813430B6070471D
:101FC0004B1E142159430123083009180A68134392
:101FD0000B6070474B1E1421594308188368DB07B8
:101FE00000D4026170474B1E1421594308188368BE
:101FF000DB0700D4426170474B1E142159430C305B
:1020000009180A60704730B50F242500013989008E
:102010008D4022408A40A8300368AB4313430360DD
:1020200030BD000001290CD0022912D0002907D1AF
:102030000A4A136803431360094A13688343136011
:102040007047064A136883431360054A13680343C5
:10205000F5E7024A13680343F6E7C0460804014067
:102060000C040140044A136803431360034A1368D5
:10207000034313607047C04600040140040401405C
:10208000014B18607047C0461404014001239C4670
:10209000194BF7B5CD186B425D41002201906D00E0
:1020A000634693400198184217D014480323814295
:1020B00005D016D812486346814200D02B00032475
:1020C0000F271440A400A740A3400E4E900880198B
:1020D00080000668BE431E4306600132102ADFD12D
:1020E000F7BD094804238142E9D008480023814212
:1020F000E5D10533E3E7C04600F8FFB7000C004820
:10210000000400480240001000100048001400487D
:102110008161704709048161704700690840704718
:10212000F0B585B001910327002102920393026864
:10213000C368039C01250C412C420AD03D004C0091
:10214000A540019EAA43AB43029DA640A540324351
:102150002B4301311029ECD10260C36005B0F0BD02
:10216000F7B50192012916D14168194300240126CF
:102170000327416081681D002541354206D03A00A1
:102180006500AA409143019AAA4011430134102CE2
:10219000F1D18160F7BD41689943E7E7F7B50024C5
:1021A00001260F270091016A436A0192019D254192
:1021B000354206D03A00A500AA409143009AAA40B1
:1021C00011430134082CF1D1002401260F272500EA
:1021D000019A08352A41324206D03A00A500AA40A9
:1021E0009343009AAA4013430134082CEFD10162B3
:1021F0004362F7BD014B024A1A607047003000404D
:10220000CCCC0000024B18688007C00F7047C04656
:102210000C30004070B5C00000D101300023451ED5
:102220002A0B17D1062B01D906230C4D01220C488D
:1022300001681142FCD10B4C0B4E0C4A2660136016
:10224000FFF7E0FF0028FBD1094B26601D60094B1A
:10225000236070BD01334008DBB2E0E7FF0F0000F0
:102260000C30004000300040555500000430004064
:1022700008300040AAAA0000014B024A1A607047C9
:1022800000300040AAAA0000012302681343036043
:102290007047802342689B0113434360704781620B
:1022A0007047036909071B011B090B430361704752
:1022B0000369034A090513400B4303617047C04695
:1022C000FFFF0FFF0369034A090413400B43036137
:1022D0007047C046FFFFF0FF0369034A090213403D
:1022E0000B4303617047C046FF00FFFFFF220369F5
:1022F00093430B4303617047FF2243684900114039
:10230000013A934319434160704700004368024A11
:10231000134043607047C046FFFBFFFF80234268C5
:10232000DB001343436070474368034A09041340CA
:102330000B4343607047C046FFFF00FF80234268A5
:102340009B041343436070474368024A1340436051
:102350007047C046FFFFFFFD8069C006C00F704791
:1023600080698007C00F704780694006C00F7047C2
:1023700080694007C00F7047F7B504000F001500D3
:102380001E1E4ED0FFF7B8FF2000FFF7BFFF200052
:102390003100FFF7C9FF099B2000002B2ED0FFF76B
:1023A000D3FF2000FFF775FFAE19B54229D1099B75
:1023B000002B39D02000FFF7D7FF0028FAD03900D2
:1023C0002000FFF799FF2000FFF7A8FF09992000E0
:1023D000FFF7AAFF2000FFF75CFF2000FFF7AEFF2A
:1023E00000252000FFF7C4FF0028FAD0636A089A8E
:1023F0005355099B0135AB42F3D815E0FFF79EFF1B
:10240000CFE72000FFF7ACFF01902000FFF7A4FF0B
:102410000028FAD1019B002BF3D02B780135A36261
:10242000C3E7099B002BCAD1F7BD10B504000129F1
:1024300014D0022927D091080139C9B2FFF731FF22
:1024400013212000FFF752FF0F212000FFF744FF68
:1024500002212000FFF736FF042111E0D1080139E5
:10246000C9B2FFF71EFF09212000FFF73FFF03213C
:102470002000FFF731FF03212000FFF723FF032196
:102480002000FFF715FF10BD002300B506280AD86D
:10249000013300F0B5FA0A0E1012181604000B4AA8
:1024A0001268520C1340180000BD084A1268520806
:1024B000F8E7074AFAE7064AF2E7054A1268520EB9
:1024C000F0E7044AF2E7044AF0E7C046341002405D
:1024D00000100240201002402410024010B50400F9
:1024E0002000FFF7D1FF0028FAD010BD00B5062864
:1024F0000BD800F085FA0B0F1117151304000C4AC6
:10250000802311685B020B43136000BD084A01235E
:102510001168F8E7074AFAE7064AF1E7064AF6E7DC
:10252000064AF4E78023034A5B041168EBE7C046E0
:1025300034100240001002402010024024100240DB
:10254000013800B5052811D800F05AFA0309111016
:10255000101703210B4A13688B43136006E0032313
:1025600008490A689A43023B13430B6000BD0323EA
:1025700004490A689A43013BF6E70323014A1168BC
:102580000B43EAE704100240034A044913680B4076
:10259000034313607047C04604100240FFFFC3FFAF
:1025A000034A0449136800040B4003431360704757
:1025B00004100240FFFFFEFF034A04491368400471
:1025C0000B4003431360704704100240FFFFFDFF00
:1025D000034A044913680B40034313607047C04625
:1025E00004100240FFF8FFFFF021034A13688B43F9
:1025F000034313607047C04604100240044B9842E6
:1026000004D11023034A11680B4313607047C0467E
:10261000005400403010024070B503240125022010
:10262000FFF764FF0220FFF759FF144A00201368E8
:10263000A3432B431360FFF7D7FF0020FFF7C8FF2A
:1026400000F042F9280000F047F980204003FFF72E
:102650009BFF2800FFF7A4FF0020FFF7ADFF20003D
:10266000FFF744FF2000FFF739FF2000FFF768FF66
:10267000034B044A1A60044B1A6070BD04100240F8
:1026800054000020006CDC0250000020054B420981
:10269000D2181F2318401E3B834011680B43136060
:1026A0007047C04600100240C3680B43C3607047C8
:1026B000C94301617047000030B50468034D1A43F7
:1026C0002C400A432243026030BDC0468FFCFFFF0E
:1026D0000823026813430360704701230268134311
:1026E00003607047702243689343436043680B4321
:1026F0004360704781627047C1627047030000B554
:102700000800062906D800F07BF90405060508052F
:102710000A005A6300BD9A63FCE7DA63FAE71A64B9
:10272000F8E70000044B10B51B6804004808C01807
:1027300000F070F9E06010BD54000020082904D1B9
:102740000368044A134003607047802302685B01FA
:102750001343F8E7FFEFFFFF4368024A13400B43C0
:1027600043607047FFCFFFFF0368024A13400B43EB
:1027700003607047FFF9FFFF0C22036893430B438C
:10278000036070478368024A13400B4383607047BD
:10279000FFFCFFFF0123026813430360704770B51D
:1027A0000D00040000F009F82900200000F001F8F5
:1027B00070BDC905C90D816270478023C2691A4284
:1027C000FCD07047FEE7704710B5164B164A174904
:1027D0008B4218D30021164A934217D38023154AFF
:1027E0009B001168144C0B431360144B9C420FD395
:1027F000134C144B9C420ED3FDF79CFE124C134B12
:102800009C420BD310BD01CA01C3E1E702C3E3E759
:1028100008CC9847E9E708CC9847EAE708CC9847FE
:10282000EDE7C04600000020383D000858000020B9
:102830001C03002014ED00E0303D0008303D00088E
:10284000303D0008303D0008303D0008303D0008B4
:102850000421034A084013688B4303431360704705
:1028600010E000E0030010B50800190000F0D2F8F5
:1028700004000420013CFFF7EBFF2402024B240A72
:1028800001201C6010BDC04614E000E00223024A93
:1028900011680B431360704710E000E00123024A07
:1028A00011680B431360704710E000E0044A4309CD
:1028B0009B009B181F2210401E3A82401A607047EE
:1028C00000E100E0FEE700001023024A11680B431C
:1028D00013607047002002400721034A13688B43AE
:1028E000034313607047C04600200240F0B5C6465F
:1028F00000B50F2A41D90324030026000B431E40D4
:102900001C423FD11500103D2D09A8462D01AC46B3
:1029100003000C00844427681D001F6067685F6027
:10292000A7689F60E7681034DF6010336545F2D117
:1029300045460F230C2401352D0149191340451933
:10294000144222D08C59AC5104369C1B032CF9D86C
:10295000043B9B0801339B00ED18C91803231A4060
:10296000561E002A06D00023CC5C1A00EC5401331A
:102970009642F9D180BCB846F0BD0500561E002A2B
:10298000F1D1F7E70500561EEDE71A00F6E7C0465D
:1029900010B583070AD00300032102E001330B4284
:1029A00005D01A78002AF9D1181A10BD0300196849
:1029B0000C4A0D4C8A188A4322420FD15968094AA1
:1029C00004338A188A43224208D15968054A0433DD
:1029D0008A188A432242F1D000E001331A78002A93
:1029E000FBD1E1E7FFFEFEFE8080808002B47146ED
:1029F00049084900095649008E4402BC7047C04648
:102A000002B4714649084900095C49008E4402BC81
:102A10007047C046002934D00123002210B48842F8
:102A20002CD301242407A14204D2814202D20901FD
:102A30001B01F8E7E400A14204D2814202D249001E
:102A40005B00F8E7884201D3401A1A434C08A042C1
:102A500002D3001B5C0822438C08A04202D3001B57
:102A60009C082243CC08A04202D3001BDC0822436E
:102A7000002803D01B0901D00909E3E7100010BCAE
:102A8000704701B5002000F05FF802BD0029F8D0C2
:102A900003B5FFF7C1FF0EBC4243891A1847C04671
:102AA000002941D010B404004C40A4460123002268
:102AB000002900D54942002800D5404288422CD345
:102AC00001242407A14204D2814202D209011B0140
:102AD000F8E7E400A14204D2814202D249005B003F
:102AE000F8E7884201D3401A1A434C08A04202D3A7
:102AF000001B5C0822438C08A04202D3001B9C08E8
:102B00002243CC08A04202D3001BDC082243002849
:102B100003D01B0901D00909E3E710006446002C2B
:102B200000D5404210BC704701B5002000F00CF801
:102B300002BDC0460029F7D003B5FFF7B3FF0EBCB6
:102B40004243891A1847C0467047C046002B11D12E
:102B5000002A0FD1002900D1002802D00021C9434A
:102B6000080007B4024802A14018029003BDC04605
:102B7000D9FFFFFF03B4684601B5029800F028F8BA
:102B8000019B9E4602B00CBC7047C046F7B5040CD2
:102B90000D0091B20F0061438C460600019383B291
:102BA000100C5F43444358433B0C60441B1899424C
:102BB00002D9802149026418019955437143180CC8
:102BC0000419BFB218044919C019091903B0F0BD9E
:102BD000F0B506000F0015001C0085B08B4263D8CD
:102BE00001D1824260D82100280000F097F8390016
:102BF0000090300000F092F8009B21001B1A1A0090
:102C00002800039300F060F800900191B94245D884
:102C100001D1B04242D8009B019C01200021039ABF
:102C2000F61AA74100F050F804000D00039B002B9A
:102C30002BD0019B009ADB0750081843019B5908D1
:102C4000039B9C46B9422CD801D1B04229D832000E
:102C50003B00121A8B41012692185B410027B618DF
:102C60005F4101235B429C446346002BEAD1300064
:102C70003900039A00F01CF8039AA4197D4106005C
:102C80000F0000F021F8241A8D410A9B002B01D07F
:102C90001E605F602000290005B0F0BD0024002503
:102CA000C4E7B6197F41DCE700240025EDE700000A
:102CB000D0400B00D1409C46203AD34018435242AA
:102CC00063469340184370479140030090409C46F0
:102CD000203A9340194352426346D3401943704708
:102CE0001C2101231B04984201D3000C10391B0A3C
:102CF000984201D3000A08391B09984201D3000900
:102D0000043902A2105C40187047C0460403020256
:102D100001010101000000000000000010B50029C1
:102D200003D1FFF7DDFF203002E00800FFF7D8FFF6
:102D300010BDC0465420484947480054204C4F57C6
:102D40000056204C4F5700562048494748003D3D0B
:102D50003D3D3D3D3D3D3D3D3D3D3D3D3D3D3D3DA3
:102D60003D3D3D3D3D3D3D3D3D3D3D3D3D3D3D3D93
:102D70003D3D3D3D3D3D3D3D3D3D3D3D3D3D3D3D83
:102D80003D3D3D3D3D3D3D3D3D3D3D3D0D0A0053FD
:102D9000686F77206D61696E2073637265656E2060
:102DA00025690D0A007633333D256C756D56207606
:102DB00064633D256C756D562074633D256C757597
:102DC00056207E74656D703D256C75430D0A005666
:102DD00033332025346C75206D560056444320252E
:102DE000346C75206D56005443202025346C7520BA
:102DF000755600502025752525002A0025337500BD
:102E00004552524F5220004F4646005354425900FB
:102E10004F4E00633D256C752C206C743D256C7500
:102E20002C2069646C653D256C750D0A0053617634
:102E3000696E67206E65772074656D703A20257520
:102E40002F722F6E00110100000000420BBFFFFF28
:102E50003C350977BDEF60190B8CC663319BFFFFD2
:102E600033333FFFF6633198CC180C0F1FBAF2FAD8
:102E70001E0F0382F2F2FADF8F0202000A0B9C0D92
:102E80008361D8F66730180C06E36D9B46C1B038F5
:102E9000190B8F0FC663319878183CF378EC3639EC
:102EA000F67242097FF0450482233188C6318C6175
:102EB0000C6184102504A08618C218C6318C4633D4
:102EC000110026094CB7F7B30A1A8300C0300C3F33
:102ED000FFFC300C0300C042697D603448BFC04233
:102EE00068BC350B863198C63318C66318180B8F2B
:102EF0001F99B0F0F0F6F6F0F0F0D99F8F00250B97
:102F00008677EE6318C6318C63180B8F1FB9F0F00B
:102F1000C0C183060C18303FFFC0180B8E1F31B1A3
:102F20008187070180C0F0F9DF8F00180B83070746
:102F30000F0F0B1B1B333FFFC3030300180BBFBF57
:102F4000B03030373FB1C0C0F0F9DF8F00180B8FC1
:102F50001F99F0F0373FB9F0F0F0D9DF8F00180B70
:102F6000BFFFC0C1818303060606040C0C0C0018C9
:102F70000B8F1FB1F0F0D08F1FB0F0F0F0DF8F009B
:102F8000180B8F1FB9B0F0F0F9DFCEC0F0F99F8FAA
:102F900000422ABC003C42333C00F58018224041EC
:102FA000C71C301C0701C0401829BFFFC0003FFFED
:102FB000C0182260380E0380C38E382000190B8F92
:102FC0008FEE3E0C060707070703018000603018EC
:102FD0000B8F1F98F8F1F7F6F6F7F3F0191F0E00B4
:102FE000190B87038361B0D86C63319FCFE6360F2E
:102FF0000783180BBE3F31B1B1B1BF3F31B0F0F123
:10300000FFBF00180B8F1F98F0F030303030303099
:10301000D8DF8F00180BBE3FB1B1F0F0F0F0F0F048
:10302000F1B1BF3E00180BBFFFF03030303FBFB0F2
:103030003030303FFFC0180BBFFFF03030303FBFA3
:10304000B0303030303000180B8F1F98F0F0303037
:1030500031F1F0F0D8DFCF00180BB0F0F0F0F0F065
:10306000FFFFF0F0F0F0F0F0C0260BBFFCC30C3017
:10307000C30C30C33FFC180B80C0C0C0C0C0C0C070
:10308000C0F0F0F9DF8F00190BB0786C666331B0D7
:10309000F07C33198C661B0D83180BB03030303048
:1030A000303030303030303FFFC0190BB8FC7F7FFC
:1030B000AF57ABDDE4F0783C1E0F0783180BB8F870
:1030C000FCFCFCF6F6F6F2F3F3F3F1F1C0180B8F0B
:1030D0001F99B0F0F0F0F0F0F0F0D99F8F00180BCE
:1030E000BF3FB1F0F0F0F1FFBF30303030300019A9
:1030F0000B8F0FC6661B0D86C361B0D96CF331FC14
:1031000079190BBF1FCC761B0D8EFE7E3318CC6653
:103110001B0D83180B870F98D8D81C0F0381F0F074
:10312000D8DF8F000A0BBFFFFC300C0300C0300C4F
:103130000300C0300C0300C0180BB0F0F0F0F0F04A
:10314000F0F0F0F0F0F9DF8F00190BB0783C1B19AC
:103150008CC6361B0D86C1C0E070100A0BB03C0F48
:1031600003C0F03CCD324C97A5294A739866180AE3
:103170000BB0360986330EC1E0300C0781F0EC71DC
:10318000986C0C0A0BB0361986330CC1E0780C032E
:1031900000C0300C0300C0180B9FDFC0C181830644
:1031A000060C0C18303FFFC04404BFF333333333F5
:1031B00033333FC0350BB18C318C618C630C63347D
:1031C00004BFCCCCCCCCCCCCCCFFC0180A06060FAC
:1031D000091999B0F0C00B807FF82408F98C192ADE
:1031E0008F8FEC3018FCFEC363BFCE30180BB030AD
:1031F0003030373FB9F0F0F0F0F9FFB700182A8F00
:103200001FB9F0F03030F9DF8F00180B80C0C0C05C
:10321000CEDFF9F0F0F0F0F9DFCEC0182A8F1FB939
:10322000B0FFFFF038DF8F00190B83E3F180C3FD9F
:10323000FE180C06030180C0603018238EDFF9F001
:10324000F0F0F0F9DFCEC0F1FF9F00180BB0303086
:103250003037BFF8F0F0F0F0F0F0F0C0250B86301A
:1032600003FF18C6318C631604830C001F7C30C327
:103270000C30C30C38FF78190BB0180C06030D8CFA
:10328000CC6C3E1D8C66330D83250BBFF18C63180F
:10329000C6318C630A2AB76FFF3BCCF33CCF33CCEB
:1032A000F33CCC182AB7BFF8F0F0F0F0F0F0F0C023
:1032B000182A8F1FB9F0F0F0F0F9DF8F001823B74C
:1032C0003FB9F0F0F0F0F9FFB7303030300018239C
:1032D0008EDFF9F0F0F0F0F9DFCEC0C0C0C0C0184A
:1032E0002AB39FDC9818181818181800182A8F1F6E
:1032F000F0F03F9FC0F0FF8F001813440C0C3FBF4D
:103300008C0C0C0C0C0C0FC7C0182AB0F0F0F0F0AD
:10331000F0F0F1FFDEC0192AB06C663318D86C36B5
:103320000E070180092AB77BBDDAA954AA773B882A
:103330008440182AB0D9998F06060F1999B0C01881
:1033400023B0F0D8D9998D8D8D8707070E3E3800B0
:10335000192ABFFFF03030303030303FFFF03604F4
:10336000873CC30C30C738E1C30C30C30F1C520478
:10337000BFFFFFFFFC2604B8F0C30C30C3871CE37B
:103380000C30C33CE01838DC7FE38000000C048084
:10339000F0420D02405A0BC1B03D08011E24C4B8D2
:1033A0009A14A2D8608D21C63D08291624E4E0A411
:1033B00094E2A8580B497530E660D51BB398774F57
:1033C00071FF4208851723F4A29893A28552CA9DE3
:1033D0005CACB5B8BC180B1364ECEDA7B606D8DD31
:1033E000DC1B8E724E59D23B5784F4DF03F280709F
:1033F000520FC2F8831322DC688EB21A4BCA49639B
:10340000306674DC9D53DE84516A4D4B69E80BC114
:1034100050FE03FE0FBE3E3E783DF07FE0FF80FF92
:1034200001FE03FC07F80FF01FE03FE0FFC1F78348
:10343000CF8F8FBE0FF80FE01381503C07F0FFC312
:10344000FF007C01F007C01F007C01F007C01F00D7
:103450007C01F007C01F007C01F007C3FFFFFFC025
:10346000134153F87FF3C7C01E00F807C03E01E0C8
:103470000F00F80F80F80F80F807807807807C0332
:10348000C01FFFFFF81B0157F8FFCE3E01F01F01E0
:10349000F01E01E07C7F87FC03E01F00F00F00F0CE
:1034A0000F01FE3EFFCFF004015007800F800F8018
:1034B0001F803F807F807F80F781E781E783C78718
:1034C0008787878FFFFFFFF00780078007800780CF
:1034D000078007801B015FFEFFEFFEF00F00F00F7B
:1034E00000F00FF0FFC07E03E01F01F00F01F01F9E
:1034F00001EE3EFFCFF00BC1503F81FF87C71F0099
:103500003C00F801E003C007BF0FFF3F9F7E1F781C
:103510001EF03DE07BC0F7C1E787CF9F0FFC07E0BF
:1035200013815FFFFFFFFFFC00F007801E00F00328
:10353000801E00F003C01E007803C00F007803E077
:103540000F803C01F007C0000BC150FF03FF0F9F2D
:103550001E1E7C3CF878F0F1F3C1FF01FC07FC1E55
:10356000FC7C7CF07FE0FFC0FF81EF07DF9F1FFC4A
:103570000FE00BC150FE03FE0F3E3C3E783DF07F56
:10358000E0FFC1FF83EF07DF1F9FFF0FDE007C001E
:10359000F001E007C00F1C7C3FF03FC00BC7203F8D
:1035A000E1FFCFC3BE007801F003C007800F001E0B
:1035B000003C007C00F800F801F801F830FFE07FE3
:1035C000C0000A8A4774CB19D1129D5931C000003E
:1035D0006423F44C0EDA342129FA65F9483425D5F0
:1035E000A38B5AB880342115B315528834208A51E0
:1035F0001B2934640F804C28A92491104C2A22499D
:1036000025404C117540349484F90865CF804D47AE
:103610008065C64C209492903421D18D6318B82CCB
:1036200020BA49243421D18844447C3421D10982F0
:1036300018B834204652A5F1083423F0878218B810
:103640003421D187A318B83423E111088420342110
:10365000D18BA318B83421D18C5E18B8649A106449
:10366000DE3834946C830634CFE0F834970609B022
:103670003421D1088840103421D19D6F083834207E
:103680008A5295F8C43423D18FA318F83421D184F9
:103690002108B83423928C6319703423F087E10831
:1036A0007C3423F087A108403421D1842F18B8340A
:1036B00022318FE318C44C23A4925C3420210842A9
:1036C00018B8342232A62929443422108421087CD7
:1036D00034223BDD6318C4342239CD6B39C4342124
:1036E000D18C6318B83423D18C7D08403425D18C1B
:1036F000631AB8203423D18C7D29443421D183042A
:1037000018B83423E4210842103422318C6318B8ED
:103710003422318A94A210342231AD6BB528342280
:103720002A5108A544342231528842103423E11131
:1037300008887C682BAAAAC04C22449224482B55A6
:1037400055C034108A54401E47F8480A403499D175
:103750007C66D0342210B6631CD83499D18422E020
:103760003420216CE319B43499D1FC22E034206474
:10377000F908421034A1B38C66D0F8342210B66335
:1037800018C42C208E4924102841C4444478342283
:1037900010953149442C23924924349BD5AD6B506C
:1037A000349AD98C63103499D18C62E034A2D98CCC
:1037B00073684034A1B38C66D084349AD9842100D4
:1037C0003499D160A2E0302113D1110C349A318C9C
:1037D00066D0349A31529440349AB5AED4A0349A1B
:1037E0002A21151034A23152884260349BE22221F2
:1037F000F04C29A4A44930642BFF4C2B2489496048
:1038000034CBB3000020140803C17078250A02E00D
:10381000D0380F44010C45128511585D1906B1C806
:1038200079200872389125099274A22A4B02DCBED5
:10383000314CC34CDA384E83B4F43ED024251045C5
:10384000D1E4992D4D13B5094954157579655A96EA
:10385000F5D1795F17F6158C6499967DA66B5B465A
:10386000E5C071DCC749D8779E57B1F27E1FE812D8
:103870000A84216876238A62C8C8636865636B73AB
:10388000756D20696E20656570726F6D3A203078B5
:10389000253034780D0A0063616C63756C61746562
:1038A000642063733A203078253034780D0A004361
:1038B0006865636B20666F7220636F6E6669672050
:1038C0006368616E6765730D0A00557064617465A5
:1038D00020636F6E66696720696E20656570726F20
:1038E0006D2066726F6D20257520746F2025750D13
:1038F0000A007772697465206E6577206368656376
:103900006B73756D3A203078253034780D0A00439A
:103910006F6E666967207361766520646F6E650DF2
:103920000A00A40164009600000001000A0046009D
:103930000A000A0003000A005A001E0073686F772D
:10394000206D656E75207769746820257520656E19
:1039500074726965730D0A0073686F77206D656E08
:10396000752073656C656374696F6E3A2025750DFB
:103970000A003C2D204261636B0044656661756CF2
:103980007420636667206C6F61646564004F4B0050
:1039900057616974696E6720666F7220757365720E
:1039A00020636F6E6669726D6174696F6E3A200094
:1039B000205052455353002052454C454153450D2C
:1039C0000A004C6F61642064656661756C742063E5
:1039D00066673F00594553004E4F0075562F4320F0
:1039E000253475207820312F31307556005443200E
:1039F00073656E73697469766974790025757831B9
:103A00002F3130755600436F6C64206A756E637495
:103A1000696F6E202533754300436F6C64206A75AF
:103A20006E6374696F6E2074656D70002575204338
:103A3000004D61782050574D2064757479202534ED
:103A4000752525004D61782064757479206379634C
:103A50006C650025752025250050574D2070657236
:103A6000696F64202535756D730050574D20706562
:103A700072696F640025756D730052656720776EFB
:103A8000642073697A652025347543005265672088
:103A900077696E646F772073697A6500496E742E5A
:103AA000206F6673206C696D697420253275430040
:103AB000496E74656772616C206C696D6974004948
:103AC0006E742E207370656564202533756D4B2FE1
:103AD0007000496E74656772616C2073706565640F
:103AE000002575206D4B2F7000537462792074652A
:103AF0006D702025377543005374616E64627920C0
:103B000074656D7000537462792064656C6179200E
:103B10002535753073005374616E64627920646575
:103B20006C617900257530207300507772646E20C7
:103B300064656C6179202533756D696E00506F770F
:103B40006572646F776E2064656C617900257520FD
:103B50006D696E0049646C65207468642025387551
:103B600025250049646C65207468726573686F6C04
:103B700064004D696E2074656D70202538754300B2
:103B80004C6F7765722074656D70206C696D697417
:103B9000004D61782074656D70202538754300559F
:103BA000707065722074656D70206C696D69740049
:103BB000486F6D65005261772076616C75657300A2
:103BC00054656D70206C696D697473005374616E17
:103BD0006462792073657474696E67730048656107
:103BE00074657220636F6E74726F6C6C65720054D2
:103BF000656D70206D6561737572656D656E7400BD
:103C0000526573746F72652064656661756C747358
:103C100000000000EA0000204B006E00DB390008C5
:103C2000ED390008FC390008EC00002000003200EB
:103C3000063A0008193A00082C3A0008E000002073
:103C400001006400313A0008443A0008533A000881
:103C5000E200002001006400593A00086A3A0008B6
:103C6000753A0008E400002000001E007A3A0008BF
:103C70008C3A00082C3A0008E600002001000A00F7
:103C80009C3A0008B03A00082C3A0008E8000020EE
:103C900001006400BF3A0008D23A0008E13A000887
:103CA000D80000200000C201E93A0008F83A0008F4
:103CB0002C3A0008DA00002000001E00053B000836
:103CC000163B0008243B0008DC00002000001E001A
:103CD0002A3B00083D3B00084D3B0008DE00002069
:103CE00000006400543B0008633B0008F52D000809
:103CF000D60000205000C201723B0008803B000843
:103D00002C3A0008D40000205000C201913B00086A
:103D10009F3B00082C3A00082000B0C8001040A1CA
:103D2000A6A81FA4D300D5F0D922DA02DB208D1477
:083D3000A0EEFF7F010000007E
:103D38000B1204050B000000482E00088B33000806
:103D4800101A0505090000000E340008C1350008E6
:103D5800070A03040A000000CE35000803380008EB
:103D6800B03B0008B53B0008C03B0008CC3B00084E
:103D7800DD3B0008EF3B0008003C000872390008F2
:083D880000127A0000127A001B
:04000005080027C9FF
:00000001FF
